{
  "contractName": "Hiraeth",
  "abi": [
    {
      "constant": true,
      "inputs": [],
      "name": "payload",
      "outputs": [
        {
          "internalType": "string",
          "name": "",
          "type": "string"
        }
      ],
      "payable": false,
      "stateMutability": "view",
      "type": "function"
    },
    {
      "constant": false,
      "inputs": [
        {
          "internalType": "string",
          "name": "content",
          "type": "string"
        }
      ],
      "name": "setPayload",
      "outputs": [],
      "payable": false,
      "stateMutability": "nonpayable",
      "type": "function"
    },
    {
      "constant": true,
      "inputs": [],
      "name": "sayHiraeth",
      "outputs": [
        {
          "internalType": "string",
          "name": "",
          "type": "string"
        }
      ],
      "payable": false,
      "stateMutability": "pure",
      "type": "function"
    }
  ],
  "bytecode": "0x608060405234801561001057600080fd5b506103e0806100206000396000f3fe608060405234801561001057600080fd5b50600436106100415760003560e01c80639e7e612c14610046578063a878f858146100c9578063e1ad76991461014c575b600080fd5b61004e610207565b6040518080602001828103825283818151815260200191508051906020019080838360005b8381101561008e578082015181840152602081019050610073565b50505050905090810190601f1680156100bb5780820380516001836020036101000a031916815260200191505b509250505060405180910390f35b6100d1610227565b6040518080602001828103825283818151815260200191508051906020019080838360005b838110156101115780820151818401526020810190506100f6565b50505050905090810190601f16801561013e5780820380516001836020036101000a031916815260200191505b509250505060405180910390f35b6102056004803603602081101561016257600080fd5b810190808035906020019064010000000081111561017f57600080fd5b82018360208201111561019157600080fd5b803590602001918460018302840111640100000000831117156101b357600080fd5b91908080601f016020809104026020016040519081016040528093929190818152602001838380828437600081840152601f19601f8201169050808301925050505050505091929192905050506102c5565b005b606060405180606001604052806027815260200161038560279139905090565b60008054600181600116156101000203166002900480601f0160208091040260200160405190810160405280929190818152602001828054600181600116156101000203166002900480156102bd5780601f10610292576101008083540402835291602001916102bd565b820191906000526020600020905b8154815290600101906020018083116102a057829003601f168201915b505050505081565b80600090805190602001906102db9291906102df565b5050565b828054600181600116156101000203166002900490600052602060002090601f016020900481019282601f1061032057805160ff191683800117855561034e565b8280016001018555821561034e579182015b8281111561034d578251825591602001919060010190610332565b5b50905061035b919061035f565b5090565b61038191905b8082111561037d576000816000905550600101610365565b5090565b9056fe4869726165746820697320676f696e6720746f206368616e67652074686520776f726c642e2e2ea265627a7a723158205a975d85f2e2a835db75e5f39ce6216b0cbd69db5eee0ecd3fd908d28004944764736f6c63430005100032",
  "source": "pragma solidity >=0.4.22 <0.9.0;\n\ncontract Hiraeth {\n    string public payload;\n\n    function setPayload(string memory content) public {\n        payload = content;\n    }\n\n    function sayHiraeth() public pure returns (string memory) {\n        return 'Hiraeth is going to change the world...';\n    }\n}",
  "sourcePath": "/Users/sokos6/Development/cryptofrequency/smarthiraeth/contracts/Hiraeth.sol",
  "compiler": {
    "name": "solc",
    "version": "0.5.16+commit.9c3226ce.Emscripten.clang"
  },
  "schemaVersion": "3.3.3",
  "updatedAt": "2021-01-23T08:30:39.283Z",
  "networkType": "ethereum",
  "devdoc": {
    "methods": {}
  },
  "userdoc": {
    "methods": {}
  }
}