{
  "contractName": "HiraethContract",
  "abi": [
    {
      "constant": true,
      "inputs": [],
      "name": "hiraethConnect",
      "outputs": [
        {
          "internalType": "string",
          "name": "",
          "type": "string"
        }
      ],
      "payable": false,
      "stateMutability": "pure",
      "type": "function"
    }
  ],
  "bytecode": "0x608060405234801561001057600080fd5b50610122806100206000396000f3fe6080604052348015600f57600080fd5b506004361060285760003560e01c80633975c26414602d575b600080fd5b603360ab565b6040518080602001828103825283818151815260200191508051906020019080838360005b8381101560715780820151818401526020810190506058565b50505050905090810190601f168015609d5780820380516001836020036101000a031916815260200191505b509250505060405180910390f35b60606040518060600160405280602281526020016100cc6022913990509056fe4869726165746820436f646520496d70726f7665732074686520576f726c642e2e2ea265627a7a723158205fe67e9a5cabd749ae7f4b161c12ee68e5fec6a1008b6edfa78d66e21d87579a64736f6c63430005100032",
  "source": "pragma solidity >=0.4.22 <0.9.0;\n\ncontract HiraethContract {\n  function hiraethConnect() public pure returns (string memory) {\n    return 'Hiraeth Code Improves the World...';\n  }\n}",
  "sourcePath": "/Users/sokos6/Development/cryptofrequency/smarthiraeth/contracts/HiraethContract.sol",
  "compiler": {
    "name": "solc",
    "version": "0.5.16+commit.9c3226ce.Emscripten.clang"
  },
  "schemaVersion": "3.3.3",
  "updatedAt": "2021-01-23T00:00:59.630Z",
  "devdoc": {
    "methods": {}
  },
  "userdoc": {
    "methods": {}
  }
}