{
  "contractName": "Inbox",
  "abi": [
    {
      "constant": true,
      "inputs": [],
      "name": "message",
      "outputs": [
        {
          "internalType": "string",
          "name": "",
          "type": "string"
        }
      ],
      "payable": false,
      "stateMutability": "view",
      "type": "function"
    },
    {
      "constant": false,
      "inputs": [
        {
          "internalType": "string",
          "name": "initialMessage",
          "type": "string"
        }
      ],
      "name": "HiraethInbox",
      "outputs": [],
      "payable": false,
      "stateMutability": "nonpayable",
      "type": "function"
    },
    {
      "constant": false,
      "inputs": [
        {
          "internalType": "string",
          "name": "newMessage",
          "type": "string"
        }
      ],
      "name": "setMessage",
      "outputs": [],
      "payable": false,
      "stateMutability": "nonpayable",
      "type": "function"
    },
    {
      "constant": true,
      "inputs": [],
      "name": "getMessage",
      "outputs": [
        {
          "internalType": "string",
          "name": "",
          "type": "string"
        }
      ],
      "payable": false,
      "stateMutability": "view",
      "type": "function"
    }
  ],
  "bytecode": "0x608060405234801561001057600080fd5b5061051b806100206000396000f3fe608060405234801561001057600080fd5b506004361061004c5760003560e01c8063368b8772146100515780639083e65b1461010c578063ce6d41de146101c7578063e21f37ce1461024a575b600080fd5b61010a6004803603602081101561006757600080fd5b810190808035906020019064010000000081111561008457600080fd5b82018360208201111561009657600080fd5b803590602001918460018302840111640100000000831117156100b857600080fd5b91908080601f016020809104026020016040519081016040528093929190818152602001838380828437600081840152601f19601f8201169050808301925050505050505091929192905050506102cd565b005b6101c56004803603602081101561012257600080fd5b810190808035906020019064010000000081111561013f57600080fd5b82018360208201111561015157600080fd5b8035906020019184600183028401116401000000008311171561017357600080fd5b91908080601f016020809104026020016040519081016040528093929190818152602001838380828437600081840152601f19601f8201169050808301925050505050505091929192905050506102e7565b005b6101cf610301565b6040518080602001828103825283818151815260200191508051906020019080838360005b8381101561020f5780820151818401526020810190506101f4565b50505050905090810190601f16801561023c5780820380516001836020036101000a031916815260200191505b509250505060405180910390f35b6102526103a3565b6040518080602001828103825283818151815260200191508051906020019080838360005b83811015610292578082015181840152602081019050610277565b50505050905090810190601f1680156102bf5780820380516001836020036101000a031916815260200191505b509250505060405180910390f35b80600090805190602001906102e3929190610441565b5050565b80600090805190602001906102fd929190610441565b5050565b606060008054600181600116156101000203166002900480601f0160208091040260200160405190810160405280929190818152602001828054600181600116156101000203166002900480156103995780601f1061036e57610100808354040283529160200191610399565b820191906000526020600020905b81548152906001019060200180831161037c57829003601f168201915b5050505050905090565b60008054600181600116156101000203166002900480601f0160208091040260200160405190810160405280929190818152602001828054600181600116156101000203166002900480156104395780601f1061040e57610100808354040283529160200191610439565b820191906000526020600020905b81548152906001019060200180831161041c57829003601f168201915b505050505081565b828054600181600116156101000203166002900490600052602060002090601f016020900481019282601f1061048257805160ff19168380011785556104b0565b828001600101855582156104b0579182015b828111156104af578251825591602001919060010190610494565b5b5090506104bd91906104c1565b5090565b6104e391905b808211156104df5760008160009055506001016104c7565b5090565b9056fea265627a7a723158201f54dfb64ee32b0be1c5ae29e289263364b9758ebede1764a9fd94cdcd1ce91264736f6c63430005100032",
  "source": "pragma solidity >=0.4.22 <0.9.0;\n\ncontract Inbox {\n  string public message;\n\n  function HiraethInbox(string memory initialMessage) public {\n    message = initialMessage;\n  }\n\n  function setMessage(string memory newMessage) public {\n    message = newMessage;\n  }\n\n  function getMessage() public view returns (string memory) {\n    return message;\n  }\n}",
  "sourcePath": "/Users/sokos6/Development/cryptofrequency/smarthiraeth/contracts/HiraethInbox.sol",
  "compiler": {
    "name": "solc",
    "version": "0.5.16+commit.9c3226ce.Emscripten.clang"
  },
  "schemaVersion": "3.3.3",
  "updatedAt": "2021-01-23T07:59:22.556Z",
  "devdoc": {
    "methods": {}
  },
  "userdoc": {
    "methods": {}
  }
}